{
  "contractName": "ItemManager",
  "abi": [
    {
      "anonymous": false,
      "inputs": [
        {
          "indexed": false,
          "internalType": "uint256",
          "name": "_itemIndex",
          "type": "uint256"
        },
        {
          "indexed": false,
          "internalType": "uint256",
          "name": "_step",
          "type": "uint256"
        },
        {
          "indexed": false,
          "internalType": "address",
          "name": "_address",
          "type": "address"
        }
      ],
      "name": "SupplyChainStep",
      "type": "event"
    },
    {
      "inputs": [],
      "name": "_owner",
      "outputs": [
        {
          "internalType": "address",
          "name": "",
          "type": "address"
        }
      ],
      "stateMutability": "view",
      "type": "function",
      "constant": true
    },
    {
      "inputs": [],
      "name": "isOwner",
      "outputs": [
        {
          "internalType": "bool",
          "name": "",
          "type": "bool"
        }
      ],
      "stateMutability": "view",
      "type": "function",
      "constant": true
    },
    {
      "inputs": [
        {
          "internalType": "uint256",
          "name": "",
          "type": "uint256"
        }
      ],
      "name": "items",
      "outputs": [
        {
          "internalType": "contract Item",
          "name": "_item",
          "type": "address"
        },
        {
          "internalType": "enum ItemManager.SupplyChainSteps",
          "name": "_step",
          "type": "uint8"
        },
        {
          "internalType": "string",
          "name": "_identifier",
          "type": "string"
        }
      ],
      "stateMutability": "view",
      "type": "function",
      "constant": true
    },
    {
      "inputs": [
        {
          "internalType": "string",
          "name": "_identifier",
          "type": "string"
        },
        {
          "internalType": "uint256",
          "name": "_priceInWei",
          "type": "uint256"
        }
      ],
      "name": "createItem",
      "outputs": [],
      "stateMutability": "nonpayable",
      "type": "function"
    },
    {
      "inputs": [
        {
          "internalType": "uint256",
          "name": "_index",
          "type": "uint256"
        }
      ],
      "name": "triggerPayment",
      "outputs": [],
      "stateMutability": "payable",
      "type": "function",
      "payable": true
    },
    {
      "inputs": [
        {
          "internalType": "uint256",
          "name": "_index",
          "type": "uint256"
        }
      ],
      "name": "triggerDelivery",
      "outputs": [],
      "stateMutability": "nonpayable",
      "type": "function"
    }
  ],
  "bytecode": "0x608060405234801561001057600080fd5b50336000806101000a81548173ffffffffffffffffffffffffffffffffffffffff021916908373ffffffffffffffffffffffffffffffffffffffff160217905550611a46806100606000396000f3fe6080604052600436106200005c5760003560e01c8063800fb83f14620000615780638c55174214620000815780638f32d59b14620000af578063b2bdfa7b14620000df578063bfb231d2146200010f578063cd31831e1462000155575b600080fd5b6200007f600480360381019062000079919062000b36565b62000183565b005b3480156200008e57600080fd5b50620000ad6004803603810190620000a7919062000ad0565b62000444565b005b348015620000bc57600080fd5b50620000c762000635565b604051620000d6919062000cfa565b60405180910390f35b348015620000ec57600080fd5b50620000f76200068c565b60405162000106919062000cdd565b60405180910390f35b3480156200011c57600080fd5b506200013b600480360381019062000135919062000b36565b620006b0565b6040516200014c9392919062000d54565b60405180910390f35b3480156200016257600080fd5b506200018160048036038101906200017b919062000b36565b62000797565b005b60006001600083815260200190815260200160002060000160009054906101000a900473ffffffffffffffffffffffffffffffffffffffff1690503373ffffffffffffffffffffffffffffffffffffffff168173ffffffffffffffffffffffffffffffffffffffff16146200022f576040517f08c379a0000000000000000000000000000000000000000000000000000000008152600401620002269062000ddc565b60405180910390fd5b348173ffffffffffffffffffffffffffffffffffffffff16633c8da5886040518163ffffffff1660e01b815260040160206040518083038186803b1580156200027757600080fd5b505afa1580156200028c573d6000803e3d6000fd5b505050506040513d601f19601f82011682018060405250810190620002b2919062000b68565b14620002f5576040517f08c379a0000000000000000000000000000000000000000000000000000000008152600401620002ec9062000dba565b60405180910390fd5b600060028111156200030c576200030b620010c9565b5b60016000600254815260200190815260200160002060000160149054906101000a900460ff166002811115620003475762000346620010c9565b5b146200038a576040517f08c379a0000000000000000000000000000000000000000000000000000000008152600401620003819062000dfe565b60405180910390fd5b600180600084815260200190815260200160002060000160146101000a81548160ff02191690836002811115620003c657620003c5620010c9565b5b02179055507fa4035636e99f06b7651a604c1019fa4e8779fe68ef27eeb74dff2de348f6199b826001600085815260200190815260200160002060000160149054906101000a900460ff166002811115620004265762000425620010c9565b5b83604051620004389392919062000e20565b60405180910390a15050565b6200044e62000635565b62000490576040517f08c379a0000000000000000000000000000000000000000000000000000000008152600401620004879062000d98565b60405180910390fd5b60003082600254604051620004a59062000966565b620004b39392919062000d17565b604051809103906000f080158015620004d0573d6000803e3d6000fd5b5090508060016000600254815260200190815260200160002060000160006101000a81548173ffffffffffffffffffffffffffffffffffffffff021916908373ffffffffffffffffffffffffffffffffffffffff160217905550600060016000600254815260200190815260200160002060000160146101000a81548160ff02191690836002811115620005695762000568620010c9565b5b02179055508260016000600254815260200190815260200160002060010190805190602001906200059c92919062000974565b507fa4035636e99f06b7651a604c1019fa4e8779fe68ef27eeb74dff2de348f6199b60025460016000600254815260200190815260200160002060000160149054906101000a900460ff166002811115620005fc57620005fb620010c9565b5b836040516200060e9392919062000e20565b60405180910390a1600260008154809291906200062b906200104c565b9190505550505050565b60008060009054906101000a900473ffffffffffffffffffffffffffffffffffffffff1673ffffffffffffffffffffffffffffffffffffffff163373ffffffffffffffffffffffffffffffffffffffff1614905090565b60008054906101000a900473ffffffffffffffffffffffffffffffffffffffff1681565b60016020528060005260406000206000915090508060000160009054906101000a900473ffffffffffffffffffffffffffffffffffffffff16908060000160149054906101000a900460ff16908060010180546200070e9062000fe0565b80601f01602080910402602001604051908101604052809291908181526020018280546200073c9062000fe0565b80156200078d5780601f1062000761576101008083540402835291602001916200078d565b820191906000526020600020905b8154815290600101906020018083116200076f57829003601f168201915b5050505050905083565b620007a162000635565b620007e3576040517f08c379a0000000000000000000000000000000000000000000000000000000008152600401620007da9062000d98565b60405180910390fd5b60016002811115620007fa57620007f9620010c9565b5b6001600083815260200190815260200160002060000160149054906101000a900460ff166002811115620008335762000832620010c9565b5b1462000876576040517f08c379a00000000000000000000000000000000000000000000000000000000081526004016200086d9062000dfe565b60405180910390fd5b60026001600083815260200190815260200160002060000160146101000a81548160ff02191690836002811115620008b357620008b2620010c9565b5b02179055507fa4035636e99f06b7651a604c1019fa4e8779fe68ef27eeb74dff2de348f6199b816001600084815260200190815260200160002060000160149054906101000a900460ff166002811115620009135762000912620010c9565b5b6001600085815260200190815260200160002060000160009054906101000a900473ffffffffffffffffffffffffffffffffffffffff166040516200095b9392919062000e20565b60405180910390a150565b610774806200129d83390190565b828054620009829062000fe0565b90600052602060002090601f016020900481019282620009a65760008555620009f2565b82601f10620009c157805160ff1916838001178555620009f2565b82800160010185558215620009f2579182015b82811115620009f1578251825591602001919060010190620009d4565b5b50905062000a01919062000a05565b5090565b5b8082111562000a2057600081600090555060010162000a06565b5090565b600062000a3b62000a358462000e86565b62000e5d565b90508281526020810184848401111562000a5a5762000a596200115b565b5b62000a6784828562000f9b565b509392505050565b600082601f83011262000a875762000a8662001156565b5b813562000a9984826020860162000a24565b91505092915050565b60008135905062000ab38162001282565b92915050565b60008151905062000aca8162001282565b92915050565b6000806040838503121562000aea5762000ae962001165565b5b600083013567ffffffffffffffff81111562000b0b5762000b0a62001160565b5b62000b198582860162000a6f565b925050602062000b2c8582860162000aa2565b9150509250929050565b60006020828403121562000b4f5762000b4e62001165565b5b600062000b5f8482850162000aa2565b91505092915050565b60006020828403121562000b815762000b8062001165565b5b600062000b918482850162000ab9565b91505092915050565b62000ba58162000ed8565b82525050565b62000bb68162000eec565b82525050565b62000bc78162000f37565b82525050565b62000bd88162000f5f565b82525050565b62000be98162000f87565b82525050565b600062000bfc8262000ebc565b62000c08818562000ec7565b935062000c1a81856020860162000faa565b62000c25816200116a565b840191505092915050565b600062000c3f60208362000ec7565b915062000c4c826200117b565b602082019050919050565b600062000c6660128362000ec7565b915062000c7382620011a4565b602082019050919050565b600062000c8d602b8362000ec7565b915062000c9a82620011cd565b604082019050919050565b600062000cb460238362000ec7565b915062000cc1826200121c565b604082019050919050565b62000cd78162000f2d565b82525050565b600060208201905062000cf4600083018462000b9a565b92915050565b600060208201905062000d11600083018462000bab565b92915050565b600060608201905062000d2e600083018662000bbc565b62000d3d602083018562000ccc565b62000d4c604083018462000ccc565b949350505050565b600060608201905062000d6b600083018662000bcd565b62000d7a602083018562000bde565b818103604083015262000d8e818462000bef565b9050949350505050565b6000602082019050818103600083015262000db38162000c30565b9050919050565b6000602082019050818103600083015262000dd58162000c57565b9050919050565b6000602082019050818103600083015262000df78162000c7e565b9050919050565b6000602082019050818103600083015262000e198162000ca5565b9050919050565b600060608201905062000e37600083018662000ccc565b62000e46602083018562000ccc565b62000e55604083018462000b9a565b949350505050565b600062000e6962000e7c565b905062000e77828262001016565b919050565b6000604051905090565b600067ffffffffffffffff82111562000ea45762000ea362001127565b5b62000eaf826200116a565b9050602081019050919050565b600081519050919050565b600082825260208201905092915050565b600062000ee58262000f0d565b9050919050565b60008115159050919050565b600081905062000f08826200126b565b919050565b600073ffffffffffffffffffffffffffffffffffffffff82169050919050565b6000819050919050565b600062000f448262000f4b565b9050919050565b600062000f588262000f0d565b9050919050565b600062000f6c8262000f73565b9050919050565b600062000f808262000f0d565b9050919050565b600062000f948262000ef8565b9050919050565b82818337600083830152505050565b60005b8381101562000fca57808201518184015260208101905062000fad565b8381111562000fda576000848401525b50505050565b6000600282049050600182168062000ff957607f821691505b6020821081141562001010576200100f620010f8565b5b50919050565b62001021826200116a565b810181811067ffffffffffffffff8211171562001043576200104262001127565b5b80604052505050565b6000620010598262000f2d565b91507fffffffffffffffffffffffffffffffffffffffffffffffffffffffffffffffff8214156200108f576200108e6200109a565b5b600182019050919050565b7f4e487b7100000000000000000000000000000000000000000000000000000000600052601160045260246000fd5b7f4e487b7100000000000000000000000000000000000000000000000000000000600052602160045260246000fd5b7f4e487b7100000000000000000000000000000000000000000000000000000000600052602260045260246000fd5b7f4e487b7100000000000000000000000000000000000000000000000000000000600052604160045260246000fd5b600080fd5b600080fd5b600080fd5b600080fd5b6000601f19601f8301169050919050565b7f4f776e61626c653a2063616c6c6572206973206e6f7420746865206f776e6572600082015250565b7f4e6f742066756c6c792070616964207965740000000000000000000000000000600082015250565b7f4f6e6c79206974656d732061726520616c6c6f77656420746f2075706461746560008201527f207468656d73656c766573000000000000000000000000000000000000000000602082015250565b7f4974656d206973206675727468657220696e2074686520737570706c7920636860008201527f61696e0000000000000000000000000000000000000000000000000000000000602082015250565b600381106200127f576200127e620010c9565b5b50565b6200128d8162000f2d565b81146200129957600080fd5b5056fe608060405234801561001057600080fd5b50604051610774380380610774833981810160405281019061003291906100b3565b816000819055508060028190555082600360006101000a81548173ffffffffffffffffffffffffffffffffffffffff021916908373ffffffffffffffffffffffffffffffffffffffff160217905550505050610187565b60008151905061009881610159565b92915050565b6000815190506100ad81610170565b92915050565b6000806000606084860312156100cc576100cb610154565b5b60006100da86828701610089565b93505060206100eb8682870161009e565b92505060406100fc8682870161009e565b9150509250925092565b60006101118261012a565b9050919050565b600061012382610106565b9050919050565b600073ffffffffffffffffffffffffffffffffffffffff82169050919050565b6000819050919050565b600080fd5b61016281610118565b811461016d57600080fd5b50565b6101798161014a565b811461018457600080fd5b50565b6105de806101966000396000f3fe6080604052600436106100385760003560e01c80632986c0e5146102505780633c8da5881461027b57806383d12eef146102a657610241565b36610241576000543414610081576040517f08c379a0000000000000000000000000000000000000000000000000000000008152600401610078906103c3565b60405180910390fd5b6000600154146100c6576040517f08c379a00000000000000000000000000000000000000000000000000000000081526004016100bd906103a3565b60405180910390fd5b34600160008282546100d89190610445565b925050819055506000600360009054906101000a900473ffffffffffffffffffffffffffffffffffffffff1673ffffffffffffffffffffffffffffffffffffffff163460025460405160240161012e9190610403565b6040516020818303038152906040527f800fb83f000000000000000000000000000000000000000000000000000000007bffffffffffffffffffffffffffffffffffffffffffffffffffffffff19166020820180517bffffffffffffffffffffffffffffffffffffffffffffffffffffffff83818316178352505050506040516101b8919061038c565b60006040518083038185875af1925050503d80600081146101f5576040519150601f19603f3d011682016040523d82523d6000602084013e6101fa565b606091505b505090508061023e576040517f08c379a0000000000000000000000000000000000000000000000000000000008152600401610235906103e3565b60405180910390fd5b50005b34801561024d57600080fd5b50005b34801561025c57600080fd5b506102656102d1565b6040516102729190610403565b60405180910390f35b34801561028757600080fd5b506102906102d7565b60405161029d9190610403565b60405180910390f35b3480156102b257600080fd5b506102bb6102dd565b6040516102c89190610403565b60405180910390f35b60025481565b60005481565b60015481565b60006102ee8261041e565b6102f88185610429565b93506103088185602086016104a5565b80840191505092915050565b6000610321601583610434565b915061032c82610507565b602082019050919050565b6000610344602183610434565b915061034f82610530565b604082019050919050565b6000610367601583610434565b91506103728261057f565b602082019050919050565b6103868161049b565b82525050565b600061039882846102e3565b915081905092915050565b600060208201905081810360008301526103bc81610314565b9050919050565b600060208201905081810360008301526103dc81610337565b9050919050565b600060208201905081810360008301526103fc8161035a565b9050919050565b6000602082019050610418600083018461037d565b92915050565b600081519050919050565b600081905092915050565b600082825260208201905092915050565b60006104508261049b565b915061045b8361049b565b9250827fffffffffffffffffffffffffffffffffffffffffffffffffffffffffffffffff038211156104905761048f6104d8565b5b828201905092915050565b6000819050919050565b60005b838110156104c35780820151818401526020810190506104a8565b838111156104d2576000848401525b50505050565b7f4e487b7100000000000000000000000000000000000000000000000000000000600052601160045260246000fd5b7f4974656d20697320616c72656164792070616964210000000000000000000000600082015250565b7f576520646f6e277420737570706f7274207061727469616c207061796d656e7460008201527f7300000000000000000000000000000000000000000000000000000000000000602082015250565b7f44656c697665727920646964206e6f7420776f726b000000000000000000000060008201525056fea26469706673582212201d00167579f9632346d2879895184ac351528382cacde2e59250f605d1c20dc564736f6c63430008060033a2646970667358221220c11c4250c02d9e17fc9f2b318db2e4cfbef538065157a08b9b61ae00f52e0e4a64736f6c63430008060033",
  "immutableReferences": {},
  "source": "pragma solidity ^0.8.4;\n\nimport \"./Ownable.sol\";\nimport \"./Item.sol\";\n\ncontract ItemManager is Ownable{\n\n     struct S_Item {\n         Item _item;\n         ItemManager.SupplyChainSteps _step;\n         string _identifier;\n     }\n     mapping(uint => S_Item) public items;\n     uint index;\n    \n     enum SupplyChainSteps {Created, Paid, Delivered}\n    \n     event SupplyChainStep(uint _itemIndex, uint _step, address _address);\n    \n     function createItem(string memory _identifier, uint _priceInWei) public onlyOwner{\n         Item item = new Item(this, _priceInWei, index);\n         items[index]._item = item;\n         items[index]._step = SupplyChainSteps.Created;\n         items[index]._identifier = _identifier;\n         emit SupplyChainStep(index, uint(items[index]._step), address(item));\n         index++;\n     }\n    \n     function triggerPayment(uint _index) public payable {\n         Item item = items[_index]._item;\n         require(address(item) == msg.sender, \"Only items are allowed to update themselves\");\n         require(item.priceInWei() == msg.value, \"Not fully paid yet\");\n         require(items[index]._step == SupplyChainSteps.Created, \"Item is further in the supply chain\");\n         items[_index]._step = SupplyChainSteps.Paid;\n         emit SupplyChainStep(_index, uint(items[_index]._step), address(item));\n     }\n    \n     function triggerDelivery(uint _index) public onlyOwner{\n         require(items[_index]._step == SupplyChainSteps.Paid, \"Item is further in the supply chain\");\n         items[_index]._step = SupplyChainSteps.Delivered;\n         emit SupplyChainStep(_index, uint(items[_index]._step), address(items[_index]._item));\n    }\n}\n\n",
  "sourcePath": "C:/TRUFFLE-REACT/contracts/ItemManager.sol",
  "compiler": {
    "name": "solc",
    "version": "0.8.6+commit.11564f7e.Emscripten.clang"
  },
  "schemaVersion": "3.4.1",
  "updatedAt": "2021-07-13T11:51:52.179Z",
  "networkType": "ethereum",
  "devdoc": {
    "kind": "dev",
    "methods": {
      "isOwner()": {
        "details": "Returns true if the caller is the current owner."
      }
    },
    "version": 1
  },
  "userdoc": {
    "kind": "user",
    "methods": {},
    "version": 1
  }
}